:100000000C944D000C946A000C946A000C946A00E5
:100010000C946A000C946A000C946A000C946A00B8
:100020000C946A000C946A000C946A000C946A00A8
:100030000C9490000C94D0000C94C4000C946C00B0
:100040000C946A000C946A000C946A000C946A0088
:100050000C94CA010C948B010C946A000C946A00F5
:100060000C946A000C946A000C946A000C946A0068
:100070000C946A000C946A000C946A004563686FE3
:100080002069732025642025640A0A0D000A0D00EA
:1000900048656C6C6F0A0A0D000011241FBECFEF7B
:1000A000D0E1DEBFCDBF11E0A0E0B1E0E2EAFAE0CE
:1000B00002C005900D92A031B107D9F721E0A0E16F
:1000C000B1E001C01D92A53AB207E1F70E940C0110
:1000D0000C944F050C9400001F920F920FB60F92D4
:1000E00011248F939F938091120190911301029795
:1000F00038F010926F00109281008FEF80931401FE
:1001000080911201909113010196909313018093B5
:1001100012019F918F910F900FBE0F901F90189515
:100120001F920F920FB60F9211248F939F93EF930C
:10013000FF938091810086FF09C0E1E8F0E08081B3
:100140008260808380818F7B808315C0E4E8F0E04B
:100150008081918190931601809315018091120105
:1001600090911301909318018093170184E080937C
:100170006F0011821082FF91EF919F918F910F90EC
:100180000FBE0F901F9018951F920F920FB60F92EF
:100190001124109214010F900FBE0F901F9018950C
:1001A0001F920F920FB60F9211248F93299881E21C
:1001B00080936F0080E4809381008F910F900FBE39
:1001C0000F901F90189580911401811124C081E037
:1001D00080931401219A5698109285001092840001
:1001E000109213011092120184E797E290938B0012
:1001F00080938A008CE090E090938900809388003F
:10020000299A8FEF86BB109280008AE0809381004C
:1002100082E080936F0008958FE590E00E94650171
:10022000789480E990E09F938F93809101018F9360
:10023000809100018F930E946C020F900F900F909D
:100240000F900CE710E0CDE8D0E00E945502882323
:10025000E1F30E94FE01843599F0843789F08D30F6
:10026000A1F7DF93CF93809101018F9380910001DB
:100270008F930E946C020F900F900F900F90E5CF1C
:100280000E94E300809114018130E1F32091150177
:100290003091160180911701909118013F932F938F
:1002A0009F938F931F930F93809101018F93809160
:1002B00000018F930E946C028DB79EB708960FB60F
:1002C000F8949EBF0FBE8DBFC0CF9F779093C5009F
:1002D0008093C40088E98093C1008EE08093C200BF
:1002E000519A509881E691E09093200180931F01EC
:1002F0009093A3018093A20181E291E090931C016D
:1003000080931B0190931E0180931D011092A40104
:100310001092A10108951F920F920FB60F9211240F
:100320002F938F939F93EF93FF938091A401882342
:1003300039F1E0911F01F091200180818093C60086
:1003400080911F0190912001019621E0813A92074E
:1003500028F49093200180931F0106C081E691E06C
:100360009093200180931F018091A401815080937C
:10037000A401811105C0E1ECF0E080818F7D8083D4
:10038000FF91EF919F918F912F910F900FBE0F9042
:100390001F9018951F920F920FB60F9211242F9352
:1003A0008F939F93EF93FF938091C600E0911D017F
:1003B000F0911E0180838091A1018F5F8093A10144
:1003C00080911D0190911E01019621E081369207D6
:1003D00028F490931E0180931D0106C081E291E0F4
:1003E00090931E0180931D01FF91EF919F918F913A
:1003F0002F910F900FBE0F901F9018958091A10123
:100400008823E1F0F8948091A10181508093A101AB
:10041000E0911B01F0911C01819191E0E136F90717
:1004200028F4F0931C01E0931B0106C021E231E0A7
:1004300030931C0120931B017894089580E0089567
:100440008091A1018823E1F30E94FE0190E00895CC
:100450009091A401903438F5F8949091A4019F5F95
:100460009093A401E091A201F091A3018083809177
:10047000A2019091A301019621E0813A920728F40C
:100480009093A3018093A20106C081E691E090932E
:10049000A3018093A201E1ECF0E08081806280837F
:1004A000789481E0089580E008958091A1010895F5
:1004B0009091A40181E0903408F480E00895CF93F6
:1004C000C82F0E9458028130E1F38C2F0E9428022D
:1004D00080E090E0CF910895A0E0B0E0E2E7F2E0A4
:1004E0000C9426050F811885F80183818860838329
:1004F000AE01455F5F4F69857A85C8010E9487021A
:10050000F8012381277F2383E4E00C944205ABE0CC
:10051000B0E0EDE8F2E00C9418056C017B018A0173
:10052000FC0117821682838181FFCCC1CE01019626
:100530003C01F6019381F70193FD859193FF819131
:100540007F01882309F4BAC1853239F493FD85917E
:1005500093FF81917F01853229F4B60190E00E94DA
:100560007E04E7CF912C212C312CFFE1F315D8F03C
:100570008B3279F038F4803279F08332A1F4232D74
:1005800020611DC08D3261F0803369F4232D21601C
:1005900016C0832D8260382EE32DE4603E2E2AC0E3
:1005A000F32DF8601DC037FC2DC020ED280F2A3038
:1005B00040F08E32B9F436FC81C1232D2064322EF6
:1005C00019C036FE06C08AE0989E200D1124922E96
:1005D00011C0EAE02E9E200D1124222EF32DF06290
:1005E0003F2E08C08C3621F4832D8068382E02C03F
:1005F000883641F4F70193FD859193FF81917F0146
:100600008111B3CF982F9F7D9554933028F40C5FC0
:100610001F4F9FE399830DC0833631F0833771F00C
:10062000833509F059C021C0F801808189830E5FAC
:100630001F4F88248394912C530113C02801F2E0AA
:100640004F0E511CF801A080B18036FE03C0692D09
:1006500070E002C06FEF7FEFC5010E9473044C0190
:100660008201F32DFF773F2E16C0280122E0420EB3
:10067000511CF801A080B18036FE03C0692D70E0E6
:1006800002C06FEF7FEFC5010E9468044C01F32D9B
:10069000F0683F2E820133FC1BC0822D90E088164B
:1006A0009906B0F4B60180E290E00E947E042A949C
:1006B000F4CFF50137FC859137FE81915F01B601DA
:1006C00090E00E947E0421102A9421E0821A910871
:1006D0008114910471F7E8C0843611F0893641F530
:1006E000F80137FE07C060817181828193810C5FC0
:1006F0001F4F08C060817181072E000C880B990B79
:100700000E5F1F4FF32DFF763F2E97FF09C0909588
:100710008095709561957F4F8F4F9F4FF0683F2E6A
:100720002AE030E0A3010E94BA04882E861845C052
:10073000853731F4232D2F7EB22E2AE030E025C0FC
:10074000932D997FB92E8F36C1F018F4883579F042
:10075000B5C0803719F0883721F0B0C0E92FE061CB
:10076000BE2EB4FE0DC0FB2DF460BF2E09C034FEBA
:100770000AC0292F2660B22E06C028E030E005C04E
:1007800020E130E002C020E132E0F801B7FE07C00E
:1007900060817181828193810C5F1F4F06C06081EF
:1007A000718180E090E00E5F1F4FA3010E94BA04A8
:1007B000882E8618FB2DFF773F2E36FE0DC0232D89
:1007C0002E7FA22E891458F434FE0BC032FC09C0CF
:1007D000832D8E7EA82E05C0B82CA32C03C0B82C68
:1007E00001C0B92CA4FE0FC0FE01E80DF11D8081EF
:1007F000803321F49A2D997EA92E09C0A2FE06C04D
:10080000B394B39404C08A2D867809F0B394A3FC02
:1008100011C0A0FE06C0B21488F4280C922C9B18BC
:100820000EC0B21460F4B60180E290E00E947E0433
:10083000B394F7CFB21418F42B1802C0982C212CC3
:10084000A4FE10C0B60180E390E00E947E04A2FEE8
:1008500017C0A1FC03C088E790E002C088E590E0E3
:10086000B6010CC08A2D867859F0A1FE02C08BE239
:1008700001C080E2A7FC8DE2B60190E00E947E04F8
:10088000891438F4B60180E390E00E947E049A94C3
:10089000F7CF8A94F301E80DF11D8081B60190E055
:1008A0000E947E048110F5CF222009F442CEB601C9
:1008B00080E290E00E947E042A94F6CFF6018681C1
:1008C000978102C08FEF9FEF2B96E2E10C943405E5
:1008D000FC010590615070400110D8F7809590950B
:1008E0008E0F9F1F0895FC01615070400190011010
:1008F000D8F7809590958E0F9F1F08950F931F93A3
:10090000CF93DF93FB01238121FD03C08FEF9FEF86
:100910002CC022FF16C046815781248135814217A1
:10092000530744F4A081B1819D012F5F3F4F318374
:1009300020838C93268137812F5F3F4F3783268317
:1009400014C08B01EC01FB010084F185E02D0995B9
:10095000892BE1F6D80116968D919C9117970196F7
:1009600017969C938E931697CE01DF91CF911F918E
:100970000F910895FA01AA27283051F1203181F111
:10098000E8946F936E7F6E5F7F4F8F4F9F4FAF4F97
:10099000B1E03ED0B4E03CD0670F781F891F9A1FAA
:1009A000A11D680F791F8A1F911DA11D6A0F711D5E
:1009B000811D911DA11D20D009F468943F912AE06A
:1009C000269F11243019305D3193DEF6CF01089552
:1009D000462F4770405D4193B3E00FD0C9F7F6CF83
:1009E000462F4F70405D4A3318F0495D31FD40524B
:1009F000419302D0A9F7EACFB4E0A69597958795E1
:100A000077956795BA95C9F70097610571050895BF
:100A10009B01AC010A2E069457954795379527956B
:100A2000BA95C9F7620F731F841F951FA01D089503
:100A30002F923F924F925F926F927F928F929F92EE
:100A4000AF92BF92CF92DF92EF92FF920F931F93DC
:100A5000CF93DF93CDB7DEB7CA1BDB0B0FB6F8948D
:100A6000DEBF0FBECDBF09942A88398848885F84CD
:100A70006E847D848C849B84AA84B984C884DF803E
:100A8000EE80FD800C811B81AA81B981CE0FD11D22
:100A90000FB6F894DEBF0FBECDBFED010895F894F8
:020AA000FFCF86
:100AA200020100000003000000005F0220020000BB
:00000001FF
