:100000000C943E000C945B000C945B000C945B0021
:100010000C945B000C945B000C945B000C945B00F4
:100020000C945B000C948C010C945B000C94B0015C
:100030000C941C010C94FE000C945B000C945E016B
:100040000C945B000C945B000C945B000C945B00C4
:100050000C945B000C945B000C945B000C945B00B4
:100060000C945B000C945B000C945B000C945B00A4
:100070000C945B000C945B000C945B0011241FBE7D
:10008000CFEFD0E1DEBFCDBF11E0A0E0B1E0EAE408
:10009000FFE002C005900D92AA35B107D9F721E023
:1000A000AAE5B1E001C01D92A037B207E1F70E94B6
:1000B000D4010C94A3070C940000E0ECF0E09081D4
:1000C00095FFFDCF8093C60080E090E00895E0ECBE
:1000D000F0E080818823ECF78091C60090E00895DD
:1000E00083E0809370001092B2008EE08093B300A2
:1000F00087E08093B10008958AE084B916BC82E459
:1001000084BD85E085BD809160019091610101977A
:10011000839710F48BE187BD80916001909161011C
:100120008497849710F489E187BD80916001909154
:10013000610188549109859710F487E187BD80910A
:100140006001909161018D569109849710F485E1C9
:1001500087BD8091600190916101815991098497D7
:1001600010F484E187BD8091600190916101855B0D
:100170009109859710F483E187BD8091600190918A
:1001800061018A5D9109849710F482E187BD8091B5
:100190006001909161018E5F9109849710F481E173
:1001A00087BD809160019091610182529140859755
:1001B00010F480E187BD80916001909161018754C6
:1001C0009140849710F48FE087BD109261011092E6
:1001D0006001089588E18093C1008FE590E09093DD
:1001E000C5008093C400EAE6F1E08EE091E09383DD
:1001F000828380E091E09183808308951F920F9223
:100200000FB60F9211248F9380916201823071F4A6
:1002100083E080936201109285001092840082EC4A
:100220008093810081E280936F0029988F910F90D5
:100230000FBE0F901F9018951F920F920FB60F923E
:1002400011248F939F93EF93FF938091630181110A
:1002500019C080916201833041F51092850010929F
:10026000840080918600909187009093690180932B
:100270006801E1E8F0E080818F7B808381E08093FA
:10028000630113C0813089F480916201833069F485
:10029000809186009091870090935D0180935C012E
:1002A0001092630184E080936201FF91EF919F912E
:1002B0008F910F900FBE0F901F9018951F920F9265
:1002C0000FB60F9211248F939F9380916201833018
:1002D000E1F480915E0190915F0101968530910576
:1002E00028F490935F0180935E010FC010925F012C
:1002F00010925E011092810010926F0010926301C3
:1003000081E0809362018FEF86BB9F918F910F9068
:100310000FBE0F901F9018951F920F920FB60F925D
:1003200011242F938F939F931092B20080915A01C2
:1003300090915B01019690935B0180935A01863600
:10034000924134F01092B20010925B0110925A0167
:100350009F918F912F910F900FBE0F901F90189526
:100360001F920F920FB60F9211241092B2001092AA
:100370005B0110925A010F900FBE0F901F901895BD
:1003800080916201813079F482E0809362018093F0
:100390006F008AEC8093810082E190E09093890065
:1003A00080938800299A08950E94EA00219A109269
:1003B00062011092630178940E94700099249394D2
:1003C000C92D0F2EFCE1AF2EF1E0BF2EF02DDFEF97
:1003D0000F2EF4E8CF2ED12CF02D0F2EF1E8EF2EBA
:1003E000F12CF02D0FE610E06894882481F88091BC
:1003F0006201811102C0C09362010E94C00180911C
:1004000062018430A1F760915C0170915D0180917F
:100410006801909169018617970778F4681B790B3A
:1004200080E090E00E94CA036093640170936501CC
:10043000809366019093670110C061507109681B39
:10044000790B80E090E00E94CA036093640170938E
:100450006501809366019093670120E03FEF4FE7CD
:1004600057E46091640170916501809166019091FB
:1004700067010E94220322E232EA41E15DE30E9429
:1004800058046093640170936501809366019093B2
:10049000670120E030E84BEA53E40E94580420E072
:1004A00030E048EC52E40E94580420E030E040E0A4
:1004B0005FE30E9458040E949B0380E090E00E944A
:1004C000CA0325E63AEA40E85FE30E94580427EFB2
:1004D00036E04EE051E40E94B6020E949B032B01DD
:1004E0003C0170936101609360016936714020F5B1
:1004F00060915A0170915B01072E000C880B990BDB
:100500000E94CC0323EE35EA4BE15DE30E945804E0
:100510000E9494036A5571097F936F935F924F9283
:10052000BF92AF920E94C5040E947C000F900F9072
:100530000F900F900F900F90C0936201D6BB109256
:100540005F0110925E01F60111821082F7011082A4
:10055000F801108280916001909161018E35914087
:1005600010F488B844CF98B842CF5058BB27AA2778
:100570000E94CD020C941E040E94100438F00E94C8
:10058000170420F039F49F3F19F426F40C940D045D
:100590000EF4E095E7FB0C940704E92F0E942F046A
:1005A00058F3BA17620773078407950720F079F4A8
:1005B000A6F50C9451040EF4E0950B2EBA2FA02D45
:1005C0000B01B90190010C01CA01A0011124FF2700
:1005D000591B99F0593F50F4503E68F11A16F040FB
:1005E000A22F232F342F4427585FF3CF46953795FA
:1005F0002795A795F0405395C9F77EF41F16BA0BBF
:10060000620B730B840BBAF09150A1F0FF0FBB1F6C
:10061000661F771F881FC2F70EC0BA0F621F731FB5
:10062000841F48F4879577956795B795F7959E3F12
:1006300008F0B0CF9395880F08F09927EE0F9795A3
:10064000879508950E9436030C941E040E94170497
:1006500058F00E94100440F029F45F3F29F00C94F8
:10066000070451110C9452040C940D040E942F04A1
:1006700068F39923B1F3552391F3951B550BBB27D1
:10068000AA2762177307840738F09F5F5F4F220F16
:10069000331F441FAA1FA9F335D00E2E3AF0E0E80D
:1006A00032D091505040E695001CCAF72BD0FE2F57
:1006B00029D0660F771F881FBB1F261737074807EB
:1006C000AB07B0E809F0BB0B802DBF01FF279358A3
:1006D0005F4F3AF09E3F510578F00C9407040C945C
:1006E00052045F3FE4F3983ED4F38695779567957F
:1006F000B795F7959F5FC9F7880F911D96958795D8
:1007000097F90895E1E0660F771F881FBB1F6217F6
:1007100073078407BA0720F0621B730B840BBA0BB4
:10072000EE1F88F7E09508950E949B036894B1112D
:100730000C94520408950E94370488F09F5798F053
:10074000B92F9927B751B0F0E1F0660F771F881FD6
:10075000991F1AF0BA95C9F714C0B13091F00E94F0
:100760005104B1E008950C945104672F782F882725
:10077000B85F39F0B93FCCF3869577956795B39517
:10078000D9F73EF490958095709561957F4F8F4F86
:100790009F4F0895E89409C097FB3EF4909580958B
:1007A000709561957F4F8F4F9F4F9923A9F0F92F37
:1007B00096E9BB279395F695879577956795B795B5
:1007C000F111F8CFFAF4BB0F11F460FF1BC06F5F9B
:1007D0007F4F8F4F9F4F16C0882311F096E911C0AD
:1007E000772321F09EE8872F762F05C0662371F0CE
:1007F00096E8862F70E060E02AF09A95660F771FE2
:10080000881FDAF7880F9695879597F9089597F9D5
:100810009F6780E870E060E008959FEF80EC0895A6
:1008200000240A94161617061806090608950024CF
:100830000A9412161306140605060895092E039449
:10084000000C11F4882352F0BB0F40F4BF2B11F4BD
:1008500060FF04C06F5F7F4F8F4F9F4F089557FD1C
:100860009058440F551F59F05F3F71F04795880F1E
:1008700097FB991F61F09F3F79F0879508951216B5
:1008800013061406551FF2CF4695F1DF08C0161661
:1008900017061806991FF1CF869571056105089412
:1008A0000895E894BB2766277727CB0197F9089529
:1008B0000E946B040C941E040E94100438F00E94E5
:1008C000170420F0952311F00C9407040C940D04E8
:1008D00011240C9452040E942F0470F3959FC1F3CD
:1008E000950F50E0551F629FF001729FBB27F00DDE
:1008F000B11D639FAA27F00DB11DAA1F649F662733
:10090000B00DA11D661F829F2227B00DA11D621F81
:10091000739FB00DA11D621F839FA00D611D221F3B
:10092000749F3327A00D611D231F849F600D211D1F
:10093000822F762F6A2F11249F5750409AF0F1F0A2
:1009400088234AF0EE0FFF1FBB1F661F771F881F0B
:1009500091505040A9F79E3F510580F00C94070438
:100960000C9452045F3FE4F3983ED4F38695779558
:100970006795B795F795E7959F5FC1F7FE2B880FB1
:10098000911D9695879597F90895A0E0B0E0EBEC5E
:10099000F4E00C947C07AE014B5F5F4FFA0161916C
:1009A0007191AF0180916C0190916D010E94DB0407
:1009B000E2E00C949807ABE0B0E0E1EEF4E00C94D8
:1009C0006C076C017B018A01FC011782168283810E
:1009D00081FFCCC1CE0101963C01F6019381F70164
:1009E00093FD859193FF81917F01882309F4BAC11A
:1009F000853239F493FD859193FF81917F01853292
:100A000029F4B60190E00E94D206E7CF912C212C68
:100A1000312CFFE1F315D8F08B3279F038F48032C5
:100A200079F08332A1F4232D20611DC08D3261F055
:100A3000803369F4232D216016C0832D8260382E07
:100A4000E32DE4603E2E2AC0F32DF8601DC037FC74
:100A50002DC020ED280F2A3040F08E32B9F436FC3C
:100A600081C1232D2064322E19C036FE06C08AE0D3
:100A7000989E200D1124922E11C0EAE02E9E200D8A
:100A80001124222EF32DF0623F2E08C08C3621F463
:100A9000832D8068382E02C0883641F4F70193FD1B
:100AA000859193FF81917F018111B3CF982F9F7D15
:100AB0009554933028F40C5F1F4F9FE399830DC02A
:100AC000833631F0833771F0833509F059C021C086
:100AD000F801808189830E5F1F4F88248394912CB5
:100AE000530113C02801F2E04F0E511CF801A08001
:100AF000B18036FE03C0692D70E002C06FEF7FEF5A
:100B0000C5010E94C7064C018201F32DFF773F2EDD
:100B100016C0280122E0420E511CF801A080B180CD
:100B200036FE03C0692D70E002C06FEF7FEFC50194
:100B30000E94BC064C01F32DF0683F2E820133FC6D
:100B40001BC0822D90E088169906B0F4B60180E2B1
:100B500090E00E94D2062A94F4CFF50137FC8591EB
:100B600037FE81915F01B60190E00E94D20621100C
:100B70002A9421E0821A91088114910471F7E8C047
:100B8000843611F0893641F5F80137FE07C06081DF
:100B90007181828193810C5F1F4F08C060817181D8
:100BA000072E000C880B990B0E5F1F4FF32DFF765D
:100BB0003F2E97FF09C090958095709561957F4F66
:100BC0008F4F9F4FF0683F2E2AE030E0A3010E9434
:100BD0000E07882E861845C0853731F4232D2F7EC9
:100BE000B22E2AE030E025C0932D997FB92E8F36A2
:100BF000C1F018F4883579F0B5C0803719F088371E
:100C000021F0B0C0E92FE061BE2EB4FE0DC0FB2D77
:100C1000F460BF2E09C034FE0AC0292F2660B22E10
:100C200006C028E030E005C020E130E002C020E14D
:100C300032E0F801B7FE07C0608171818281938143
:100C40000C5F1F4F06C06081718180E090E00E5FF5
:100C50001F4FA3010E940E07882E8618FB2DFF77D9
:100C60003F2E36FE0DC0232D2E7FA22E891458F460
:100C700034FE0BC032FC09C0832D8E7EA82E05C029
:100C8000B82CA32C03C0B82C01C0B92CA4FE0FC0F3
:100C9000FE01E80DF11D8081803321F49A2D997EAB
:100CA000A92E09C0A2FE06C0B394B39404C08A2D35
:100CB000867809F0B394A3FC11C0A0FE06C0B2145C
:100CC00088F4280C922C9B180EC0B21460F4B60164
:100CD00080E290E00E94D206B394F7CFB21418F4E9
:100CE0002B1802C0982C212CA4FE10C0B60180E362
:100CF00090E00E94D206A2FE17C0A1FC03C088E7C4
:100D000090E002C088E590E0B6010CC08A2D86789C
:100D100059F0A1FE02C08BE201C080E2A7FC8DE287
:100D2000B60190E00E94D206891438F4B60180E33F
:100D300090E00E94D2069A94F7CF8A94F301E80DCE
:100D4000F11D8081B60190E00E94D2068110F5CF9E
:100D5000222009F442CEB60180E290E00E94D20641
:100D60002A94F6CFF6018681978102C08FEF9FEF1C
:100D70002B96E2E10C948807FC01059061507040CD
:100D80000110D8F7809590958E0F9F1F0895FC0154
:100D90006150704001900110D8F7809590958E0FAA
:100DA0009F1F08950F931F93CF93DF93FB01238120
:100DB00021FD03C08FEF9FEF2CC022FF16C046819C
:100DC0005781248135814217530744F4A081B181B2
:100DD0009D012F5F3F4F318320838C932681378184
:100DE0002F5F3F4F3783268314C08B01EC01FB013B
:100DF0000084F185E02D0995892BE1F6D80116963E
:100E00008D919C911797019617969C938E931697A8
:100E1000CE01DF91CF911F910F910895FA01AA277A
:100E2000283051F1203181F1E8946F936E7F6E5F2D
:100E30007F4F8F4F9F4FAF4FB1E03ED0B4E03CD0DB
:100E4000670F781F891F9A1FA11D680F791F8A1FBE
:100E5000911DA11D6A0F711D811D911DA11D20D025
:100E600009F468943F912AE0269F11243019305DDF
:100E70003193DEF6CF010895462F4770405D4193D0
:100E8000B3E00FD0C9F7F6CF462F4F70405D4A331D
:100E900018F0495D31FD4052419302D0A9F7EACFE5
:100EA000B4E0A6959795879577956795BA95C9F714
:100EB00000976105710508959B01AC010A2E069407
:100EC0005795479537952795BA95C9F7620F731FC0
:100ED000841F951FA01D08952F923F924F925F92FD
:100EE0006F927F928F929F92AF92BF92CF92DF923A
:100EF000EF92FF920F931F93CF93DF93CDB7DEB79F
:100F0000CA1BDB0B0FB6F894DEBF0FBECDBF099432
:100F10002A88398848885F846E847D848C849B8489
:100F2000AA84B984C884DF80EE80FD800C811B8197
:100F3000AA81B981CE0FD11D0FB6F894DEBF0FBEC6
:0A0F4000CDBFED010895F894FFCF36
:100F4A00000000010000000000006700000000002F
:100F5A000002000000005D000000000054686520E7
:100F6A0064697374616E63652069733A202575201C
:100F7A0063656E74696D657465727320616E642051
:100F8A0074686520616E676C65206973202564202A
:0A0F9A00646567726565730A000064
:00000001FF
